{
  "_format": "hh-sol-artifact-1",
  "contractName": "DefiLottery",
  "sourceName": "contracts/DefiLottery.sol",
  "abi": [
    {
      "inputs": [
        {
          "internalType": "string",
          "name": "_theBaseURI",
          "type": "string"
        }
      ],
      "stateMutability": "nonpayable",
      "type": "constructor"
    },
    {
      "inputs": [],
      "name": "ApprovalCallerNotOwnerNorApproved",
      "type": "error"
    },
    {
      "inputs": [],
      "name": "ApprovalQueryForNonexistentToken",
      "type": "error"
    },
    {
      "inputs": [],
      "name": "ApprovalToCurrentOwner",
      "type": "error"
    },
    {
      "inputs": [],
      "name": "ApproveToCaller",
      "type": "error"
    },
    {
      "inputs": [],
      "name": "BalanceQueryForZeroAddress",
      "type": "error"
    },
    {
      "inputs": [],
      "name": "MintToZeroAddress",
      "type": "error"
    },
    {
      "inputs": [],
      "name": "MintZeroQuantity",
      "type": "error"
    },
    {
      "inputs": [],
      "name": "OwnerQueryForNonexistentToken",
      "type": "error"
    },
    {
      "inputs": [],
      "name": "TransferCallerNotOwnerNorApproved",
      "type": "error"
    },
    {
      "inputs": [],
      "name": "TransferFromIncorrectOwner",
      "type": "error"
    },
    {
      "inputs": [],
      "name": "TransferToNonERC721ReceiverImplementer",
      "type": "error"
    },
    {
      "inputs": [],
      "name": "TransferToZeroAddress",
      "type": "error"
    },
    {
      "inputs": [],
      "name": "URIQueryForNonexistentToken",
      "type": "error"
    },
    {
      "anonymous": false,
      "inputs": [
        {
          "indexed": true,
          "internalType": "address",
          "name": "owner",
          "type": "address"
        },
        {
          "indexed": true,
          "internalType": "address",
          "name": "approved",
          "type": "address"
        },
        {
          "indexed": true,
          "internalType": "uint256",
          "name": "tokenId",
          "type": "uint256"
        }
      ],
      "name": "Approval",
      "type": "event"
    },
    {
      "anonymous": false,
      "inputs": [
        {
          "indexed": true,
          "internalType": "address",
          "name": "owner",
          "type": "address"
        },
        {
          "indexed": true,
          "internalType": "address",
          "name": "operator",
          "type": "address"
        },
        {
          "indexed": false,
          "internalType": "bool",
          "name": "approved",
          "type": "bool"
        }
      ],
      "name": "ApprovalForAll",
      "type": "event"
    },
    {
      "anonymous": false,
      "inputs": [
        {
          "indexed": true,
          "internalType": "address",
          "name": "previousOwner",
          "type": "address"
        },
        {
          "indexed": true,
          "internalType": "address",
          "name": "newOwner",
          "type": "address"
        }
      ],
      "name": "OwnershipTransferred",
      "type": "event"
    },
    {
      "anonymous": false,
      "inputs": [
        {
          "indexed": true,
          "internalType": "address",
          "name": "from",
          "type": "address"
        },
        {
          "indexed": true,
          "internalType": "address",
          "name": "to",
          "type": "address"
        },
        {
          "indexed": true,
          "internalType": "uint256",
          "name": "tokenId",
          "type": "uint256"
        }
      ],
      "name": "Transfer",
      "type": "event"
    },
    {
      "inputs": [],
      "name": "MAX_SUPPLY",
      "outputs": [
        {
          "internalType": "uint256",
          "name": "",
          "type": "uint256"
        }
      ],
      "stateMutability": "view",
      "type": "function"
    },
    {
      "inputs": [
        {
          "internalType": "address",
          "name": "to",
          "type": "address"
        },
        {
          "internalType": "uint256",
          "name": "tokenId",
          "type": "uint256"
        }
      ],
      "name": "approve",
      "outputs": [],
      "stateMutability": "nonpayable",
      "type": "function"
    },
    {
      "inputs": [
        {
          "internalType": "address",
          "name": "owner",
          "type": "address"
        }
      ],
      "name": "balanceOf",
      "outputs": [
        {
          "internalType": "uint256",
          "name": "",
          "type": "uint256"
        }
      ],
      "stateMutability": "view",
      "type": "function"
    },
    {
      "inputs": [],
      "name": "baseExtension",
      "outputs": [
        {
          "internalType": "string",
          "name": "",
          "type": "string"
        }
      ],
      "stateMutability": "view",
      "type": "function"
    },
    {
      "inputs": [],
      "name": "baseURI",
      "outputs": [
        {
          "internalType": "string",
          "name": "",
          "type": "string"
        }
      ],
      "stateMutability": "view",
      "type": "function"
    },
    {
      "inputs": [
        {
          "internalType": "uint256",
          "name": "_maxMintAllowed",
          "type": "uint256"
        }
      ],
      "name": "changeMaxMintAllowed",
      "outputs": [],
      "stateMutability": "nonpayable",
      "type": "function"
    },
    {
      "inputs": [
        {
          "internalType": "uint256",
          "name": "_priceSale",
          "type": "uint256"
        }
      ],
      "name": "changePriceSale",
      "outputs": [],
      "stateMutability": "nonpayable",
      "type": "function"
    },
    {
      "inputs": [
        {
          "internalType": "uint256",
          "name": "tokenId",
          "type": "uint256"
        }
      ],
      "name": "getApproved",
      "outputs": [
        {
          "internalType": "address",
          "name": "",
          "type": "address"
        }
      ],
      "stateMutability": "view",
      "type": "function"
    },
    {
      "inputs": [],
      "name": "getBalanceForTheWinner",
      "outputs": [
        {
          "internalType": "uint256",
          "name": "",
          "type": "uint256"
        }
      ],
      "stateMutability": "view",
      "type": "function"
    },
    {
      "inputs": [],
      "name": "getWinnerAddress",
      "outputs": [
        {
          "internalType": "address",
          "name": "",
          "type": "address"
        }
      ],
      "stateMutability": "view",
      "type": "function"
    },
    {
      "inputs": [
        {
          "internalType": "address",
          "name": "owner",
          "type": "address"
        },
        {
          "internalType": "address",
          "name": "operator",
          "type": "address"
        }
      ],
      "name": "isApprovedForAll",
      "outputs": [
        {
          "internalType": "bool",
          "name": "",
          "type": "bool"
        }
      ],
      "stateMutability": "view",
      "type": "function"
    },
    {
      "inputs": [],
      "name": "max_mint_allowed",
      "outputs": [
        {
          "internalType": "uint256",
          "name": "",
          "type": "uint256"
        }
      ],
      "stateMutability": "view",
      "type": "function"
    },
    {
      "inputs": [],
      "name": "name",
      "outputs": [
        {
          "internalType": "string",
          "name": "",
          "type": "string"
        }
      ],
      "stateMutability": "view",
      "type": "function"
    },
    {
      "inputs": [],
      "name": "owner",
      "outputs": [
        {
          "internalType": "address",
          "name": "",
          "type": "address"
        }
      ],
      "stateMutability": "view",
      "type": "function"
    },
    {
      "inputs": [
        {
          "internalType": "uint256",
          "name": "tokenId",
          "type": "uint256"
        }
      ],
      "name": "ownerOf",
      "outputs": [
        {
          "internalType": "address",
          "name": "",
          "type": "address"
        }
      ],
      "stateMutability": "view",
      "type": "function"
    },
    {
      "inputs": [],
      "name": "paused",
      "outputs": [
        {
          "internalType": "bool",
          "name": "",
          "type": "bool"
        }
      ],
      "stateMutability": "view",
      "type": "function"
    },
    {
      "inputs": [],
      "name": "priceSale",
      "outputs": [
        {
          "internalType": "uint256",
          "name": "",
          "type": "uint256"
        }
      ],
      "stateMutability": "view",
      "type": "function"
    },
    {
      "inputs": [],
      "name": "renounceOwnership",
      "outputs": [],
      "stateMutability": "nonpayable",
      "type": "function"
    },
    {
      "inputs": [
        {
          "internalType": "address",
          "name": "from",
          "type": "address"
        },
        {
          "internalType": "address",
          "name": "to",
          "type": "address"
        },
        {
          "internalType": "uint256",
          "name": "tokenId",
          "type": "uint256"
        }
      ],
      "name": "safeTransferFrom",
      "outputs": [],
      "stateMutability": "nonpayable",
      "type": "function"
    },
    {
      "inputs": [
        {
          "internalType": "address",
          "name": "from",
          "type": "address"
        },
        {
          "internalType": "address",
          "name": "to",
          "type": "address"
        },
        {
          "internalType": "uint256",
          "name": "tokenId",
          "type": "uint256"
        },
        {
          "internalType": "bytes",
          "name": "_data",
          "type": "bytes"
        }
      ],
      "name": "safeTransferFrom",
      "outputs": [],
      "stateMutability": "nonpayable",
      "type": "function"
    },
    {
      "inputs": [
        {
          "internalType": "address",
          "name": "_account",
          "type": "address"
        },
        {
          "internalType": "uint256",
          "name": "_ammount",
          "type": "uint256"
        }
      ],
      "name": "saleMint",
      "outputs": [],
      "stateMutability": "payable",
      "type": "function"
    },
    {
      "inputs": [],
      "name": "saleStartTime",
      "outputs": [
        {
          "internalType": "uint256",
          "name": "",
          "type": "uint256"
        }
      ],
      "stateMutability": "view",
      "type": "function"
    },
    {
      "inputs": [],
      "name": "sellingStep",
      "outputs": [
        {
          "internalType": "enum DefiLottery.Steps",
          "name": "",
          "type": "uint8"
        }
      ],
      "stateMutability": "view",
      "type": "function"
    },
    {
      "inputs": [
        {
          "internalType": "address",
          "name": "operator",
          "type": "address"
        },
        {
          "internalType": "bool",
          "name": "approved",
          "type": "bool"
        }
      ],
      "name": "setApprovalForAll",
      "outputs": [],
      "stateMutability": "nonpayable",
      "type": "function"
    },
    {
      "inputs": [
        {
          "internalType": "string",
          "name": "_baseExtension",
          "type": "string"
        }
      ],
      "name": "setBaseExtension",
      "outputs": [],
      "stateMutability": "nonpayable",
      "type": "function"
    },
    {
      "inputs": [
        {
          "internalType": "string",
          "name": "_newBaseURI",
          "type": "string"
        }
      ],
      "name": "setBaseUri",
      "outputs": [],
      "stateMutability": "nonpayable",
      "type": "function"
    },
    {
      "inputs": [
        {
          "internalType": "bool",
          "name": "_paused",
          "type": "bool"
        }
      ],
      "name": "setPaused",
      "outputs": [],
      "stateMutability": "nonpayable",
      "type": "function"
    },
    {
      "inputs": [
        {
          "internalType": "uint256",
          "name": "_saleStartTime",
          "type": "uint256"
        }
      ],
      "name": "setSaleStartTime",
      "outputs": [],
      "stateMutability": "nonpayable",
      "type": "function"
    },
    {
      "inputs": [
        {
          "internalType": "uint256",
          "name": "_steps",
          "type": "uint256"
        }
      ],
      "name": "setSteps",
      "outputs": [],
      "stateMutability": "nonpayable",
      "type": "function"
    },
    {
      "inputs": [
        {
          "internalType": "bytes4",
          "name": "interfaceId",
          "type": "bytes4"
        }
      ],
      "name": "supportsInterface",
      "outputs": [
        {
          "internalType": "bool",
          "name": "",
          "type": "bool"
        }
      ],
      "stateMutability": "view",
      "type": "function"
    },
    {
      "inputs": [],
      "name": "symbol",
      "outputs": [
        {
          "internalType": "string",
          "name": "",
          "type": "string"
        }
      ],
      "stateMutability": "view",
      "type": "function"
    },
    {
      "inputs": [
        {
          "internalType": "uint256",
          "name": "_tokenId",
          "type": "uint256"
        }
      ],
      "name": "tokenURI",
      "outputs": [
        {
          "internalType": "string",
          "name": "",
          "type": "string"
        }
      ],
      "stateMutability": "view",
      "type": "function"
    },
    {
      "inputs": [],
      "name": "totalSupply",
      "outputs": [
        {
          "internalType": "uint256",
          "name": "",
          "type": "uint256"
        }
      ],
      "stateMutability": "view",
      "type": "function"
    },
    {
      "inputs": [
        {
          "internalType": "address",
          "name": "from",
          "type": "address"
        },
        {
          "internalType": "address",
          "name": "to",
          "type": "address"
        },
        {
          "internalType": "uint256",
          "name": "tokenId",
          "type": "uint256"
        }
      ],
      "name": "transferFrom",
      "outputs": [],
      "stateMutability": "nonpayable",
      "type": "function"
    },
    {
      "inputs": [
        {
          "internalType": "address",
          "name": "newOwner",
          "type": "address"
        }
      ],
      "name": "transferOwnership",
      "outputs": [],
      "stateMutability": "nonpayable",
      "type": "function"
    },
    {
      "inputs": [],
      "name": "withdraw",
      "outputs": [],
      "stateMutability": "payable",
      "type": "function"
    },
    {
      "inputs": [],
      "name": "withdrawToWinner",
      "outputs": [],
      "stateMutability": "payable",
      "type": "function"
    }
  ],
  "bytecode": "0x6005600a819055600b81905564174876e800600c5560c0604052608090815264173539b7b760d91b60a052600e90620000399082620002f9565b50600f805460ff1916905563630fe5c26010553480156200005957600080fd5b5060405162002222380380620022228339810160408190526200007c91620003c5565b6040518060400160405280600b81526020016a446566694c6f747465727960a81b8152506040518060400160405280600381526020016211119360ea1b8152508160029081620000cd9190620002f9565b506003620000dc8282620002f9565b50506000805550620000ee3362000121565b6001600955620000fe3362000173565b6011805460ff19166001179055600d620001198282620002f9565b50506200049a565b600880546001600160a01b038381166001600160a01b0319831681179093556040519116919082907f8be0079c531659141344cd1fd0a4f28419497f9722a3daafe3b4186f6b6457e090600090a35050565b6200017d620001f6565b6001600160a01b038116620001e85760405162461bcd60e51b815260206004820152602660248201527f4f776e61626c653a206e6577206f776e657220697320746865207a65726f206160448201526564647265737360d01b60648201526084015b60405180910390fd5b620001f38162000121565b50565b6008546001600160a01b03163314620002525760405162461bcd60e51b815260206004820181905260248201527f4f776e61626c653a2063616c6c6572206973206e6f7420746865206f776e65726044820152606401620001df565b565b634e487b7160e01b600052604160045260246000fd5b600181811c908216806200027f57607f821691505b602082108103620002a057634e487b7160e01b600052602260045260246000fd5b50919050565b601f821115620002f457600081815260208120601f850160051c81016020861015620002cf5750805b601f850160051c820191505b81811015620002f057828155600101620002db565b5050505b505050565b81516001600160401b0381111562000315576200031562000254565b6200032d816200032684546200026a565b84620002a6565b602080601f8311600181146200036557600084156200034c5750858301515b600019600386901b1c1916600185901b178555620002f0565b600085815260208120601f198616915b82811015620003965788860151825594840194600190910190840162000375565b5085821015620003b55787850151600019600388901b60f8161c191681555b5050505050600190811b01905550565b60006020808385031215620003d957600080fd5b82516001600160401b0380821115620003f157600080fd5b818501915085601f8301126200040657600080fd5b8151818111156200041b576200041b62000254565b604051601f8201601f19908116603f0116810190838211818310171562000446576200044662000254565b8160405282815288868487010111156200045f57600080fd5b600093505b8284101562000483578484018601518185018701529285019262000464565b600086848301015280965050505050505092915050565b611d7880620004aa6000396000f3fe60806040526004361061021a5760003560e01c80636c0360eb11610123578063a0bcfc7f116100ab578063c87b56dd1161006f578063c87b56dd146105a2578063cbccefb2146105c2578063da3ef23f146105e9578063e985e9c514610609578063f2fde38b1461062957600080fd5b8063a0bcfc7f14610517578063a22cb46514610537578063b88d4fde14610557578063ba0c60c914610577578063c66828621461058d57600080fd5b806381a7927e116100f257806381a7927e146104a65780638da5cb5b146104bc578063937c82e7146104da57806395d89b41146104fa5780639f0961c11461050f57600080fd5b80636c0360eb1461044957806370a082311461045e578063715018a61461047e5780637b22aa811461049357600080fd5b806323b872dd116101a657806347457a2c1161017557806347457a2c146103bc578063525f8a5c146103cf578063549df2df146103ef5780635c975abb1461040f5780636352211e1461042957600080fd5b806323b872dd1461035e57806332cb6b0c1461037e5780633ccfd60b1461039457806342842e0e1461039c57600080fd5b806310a37c26116101ed57806310a37c26146102d057806316c38b3c146102e557806318160ddd146103055780631cbaee2d146103285780631dcfab391461033e57600080fd5b806301ffc9a71461021f57806306fdde0314610254578063081812fc14610276578063095ea7b3146102ae575b600080fd5b34801561022b57600080fd5b5061023f61023a3660046116fc565b610649565b60405190151581526020015b60405180910390f35b34801561026057600080fd5b5061026961069b565b60405161024b9190611769565b34801561028257600080fd5b5061029661029136600461177c565b61072d565b6040516001600160a01b03909116815260200161024b565b3480156102ba57600080fd5b506102ce6102c93660046117b1565b610771565b005b3480156102dc57600080fd5b50610296610843565b3480156102f157600080fd5b506102ce6103003660046117eb565b6108b5565b34801561031157600080fd5b50600154600054035b60405190815260200161024b565b34801561033457600080fd5b5061031a60105481565b34801561034a57600080fd5b506102ce61035936600461177c565b6108d0565b34801561036a57600080fd5b506102ce610379366004611806565b6108dd565b34801561038a57600080fd5b5061031a600a5481565b6102ce6108ed565b3480156103a857600080fd5b506102ce6103b7366004611806565b610932565b6102ce6103ca3660046117b1565b61094d565b3480156103db57600080fd5b506102ce6103ea36600461177c565b610bd5565b3480156103fb57600080fd5b506102ce61040a36600461177c565b610be2565b34801561041b57600080fd5b50600f5461023f9060ff1681565b34801561043557600080fd5b5061029661044436600461177c565b610bef565b34801561045557600080fd5b50610269610bfa565b34801561046a57600080fd5b5061031a610479366004611842565b610c88565b34801561048a57600080fd5b506102ce610cd1565b34801561049f57600080fd5b504761031a565b3480156104b257600080fd5b5061031a600c5481565b3480156104c857600080fd5b506008546001600160a01b0316610296565b3480156104e657600080fd5b506102ce6104f536600461177c565b610ce3565b34801561050657600080fd5b50610269610d21565b6102ce610d30565b34801561052357600080fd5b506102ce6105323660046118e9565b610e35565b34801561054357600080fd5b506102ce610552366004611932565b610e4d565b34801561056357600080fd5b506102ce610572366004611965565b610ee2565b34801561058357600080fd5b5061031a600b5481565b34801561059957600080fd5b50610269610f2c565b3480156105ae57600080fd5b506102696105bd36600461177c565b610f39565b3480156105ce57600080fd5b506011546105dc9060ff1681565b60405161024b91906119f7565b3480156105f557600080fd5b506102ce6106043660046118e9565b610fc2565b34801561061557600080fd5b5061023f610624366004611a1f565b610fd6565b34801561063557600080fd5b506102ce610644366004611842565b611004565b60006301ffc9a760e01b6001600160e01b03198316148061067a57506380ac58cd60e01b6001600160e01b03198316145b806106955750635b5e139f60e01b6001600160e01b03198316145b92915050565b6060600280546106aa90611a49565b80601f01602080910402602001604051908101604052809291908181526020018280546106d690611a49565b80156107235780601f106106f857610100808354040283529160200191610723565b820191906000526020600020905b81548152906001019060200180831161070657829003601f168201915b5050505050905090565b60006107388261107d565b610755576040516333d1c03960e21b815260040160405180910390fd5b506000908152600660205260409020546001600160a01b031690565b600061077c826110a4565b9050806001600160a01b0316836001600160a01b0316036107b05760405163250fdee360e21b815260040160405180910390fd5b336001600160a01b038216146107e7576107ca8133610fd6565b6107e7576040516367d9dca160e11b815260040160405180910390fd5b60008281526006602052604080822080546001600160a01b0319166001600160a01b0387811691821790925591518593918516917f8c5be1e5ebec7d5bd14f71427d1e84f3dd0314c0f7b2291e5b200ac8c7c3b92591a4505050565b6000806108536001546000540390565b6040516bffffffffffffffffffffffff193360601b166020820152426034820152605481018390526074016040516020818303038152906040528051906020012060001c6108a19190611a99565b905060006108ae82610bef565b9392505050565b6108bd61110b565b600f805460ff1916911515919091179055565b6108d861110b565b600c55565b6108e8838383611165565b505050565b6108f561110b565b336108fc6064610906476014611ac3565b6109109190611ae2565b6040518115909202916000818181858888f1935050505061093057600080fd5b565b6108e883838360405180602001604052806000815250610ee2565b6002600954036109a45760405162461bcd60e51b815260206004820152601f60248201527f5265656e7472616e637947756172643a207265656e7472616e742063616c6c0060448201526064015b60405180910390fd5b6002600955600c546010544210156109fe5760405162461bcd60e51b815260206004820152601860248201527f53616c6520686173206e6f742073746172746564207965740000000000000000604482015260640161099b565b600160115460ff166002811115610a1757610a176119e1565b14610a645760405162461bcd60e51b815260206004820181905260248201527f536f7272792c2073616c6520686173206e6f742073746172746564207965742e604482015260640161099b565b610a6e8282611ac3565b341015610ab25760405162461bcd60e51b81526020600482015260126024820152712737ba1032b737bab3b43a10333ab732399760711b604482015260640161099b565b600b54821115610b0e5760405162461bcd60e51b815260206004820152602160248201527f596f752063616e2774206d696e74206d6f7265207468616e205820746f6b656e6044820152607360f81b606482015260840161099b565b600a5482610b1f6001546000540390565b610b299190611af6565b1115610b9d5760405162461bcd60e51b815260206004820152603860248201527f53616c6520697320616c6d6f737420646f6e6520616e6420776520646f6e277460448201527f206861766520656e6f75676874204e465473206c6566742e0000000000000000606482015260840161099b565b601054610bad906202bf20611af6565b4210610bc1576011805460ff191660021790555b610bcb838361131f565b5050600160095550565b610bdd61110b565b601055565b610bea61110b565b600b55565b6000610695826110a4565b600d8054610c0790611a49565b80601f0160208091040260200160405190810160405280929190818152602001828054610c3390611a49565b8015610c805780601f10610c5557610100808354040283529160200191610c80565b820191906000526020600020905b815481529060010190602001808311610c6357829003601f168201915b505050505081565b600081600003610cab576040516323d3ad8160e21b815260040160405180910390fd5b506001600160a01b031660009081526005602052604090205467ffffffffffffffff1690565b610cd961110b565b6109306000611339565b610ceb61110b565b806002811115610cfd57610cfd6119e1565b6011805460ff19166001836002811115610d1957610d196119e1565b021790555050565b6060600380546106aa90611a49565b600260095403610d825760405162461bcd60e51b815260206004820152601f60248201527f5265656e7472616e637947756172643a207265656e7472616e742063616c6c00604482015260640161099b565b60026009556000610d966001546000540390565b6040516bffffffffffffffffffffffff193360601b166020820152426034820152605481018390526074016040516020818303038152906040528051906020012060001c610de49190611a99565b90506000610df182610bef565b9050336001600160a01b03821614610e0857600080fd5b60405133904780156108fc02916000818181858888f19350505050610e2c57600080fd5b50506001600955565b610e3d61110b565b600d610e498282611b4f565b5050565b336001600160a01b03831603610e765760405163b06307db60e01b815260040160405180910390fd5b3360008181526007602090815260408083206001600160a01b03871680855290835292819020805460ff191686151590811790915590519081529192917f17307eab39ab6107e8899845ad3d59bd9653f200f220920489ca2b5937696c31910160405180910390a35050565b610eed848484611165565b6001600160a01b0383163b15610f2657610f098484848461138b565b610f26576040516368d2bf6b60e11b815260040160405180910390fd5b50505050565b600e8054610c0790611a49565b6060610f448261107d565b610f905760405162461bcd60e51b815260206004820152601f60248201527f55524920717565727920666f72206e6f6e6578697374656e7420746f6b656e00604482015260640161099b565b600d610f9b83611477565b604051602001610fac929190611c0f565b6040516020818303038152906040529050919050565b610fca61110b565b600e610e498282611b4f565b6001600160a01b03918216600090815260076020908152604080832093909416825291909152205460ff1690565b61100c61110b565b6001600160a01b0381166110715760405162461bcd60e51b815260206004820152602660248201527f4f776e61626c653a206e6577206f776e657220697320746865207a65726f206160448201526564647265737360d01b606482015260840161099b565b61107a81611339565b50565b6000805482108015610695575050600090815260046020526040902054600160e01b161590565b6000816000548110156110f25760008181526004602052604081205490600160e01b821690036110f0575b806000036108ae5750600019016000818152600460205260409020546110cf565b505b604051636f96cda160e11b815260040160405180910390fd5b6008546001600160a01b031633146109305760405162461bcd60e51b815260206004820181905260248201527f4f776e61626c653a2063616c6c6572206973206e6f7420746865206f776e6572604482015260640161099b565b6000611170826110a4565b9050836001600160a01b0316816001600160a01b0316146111a35760405162a1148160e81b815260040160405180910390fd5b6000828152600660205260408120546001600160a01b03908116919086163314806111d357506111d38633610fd6565b806111e657506001600160a01b03821633145b90508061120657604051632ce44b5f60e11b815260040160405180910390fd5b8460000361122757604051633a954ecd60e21b815260040160405180910390fd5b811561124a57600084815260066020526040902080546001600160a01b03191690555b6001600160a01b038681166000908152600560209081526040808320805460001901905592881682528282208054600101905586825260049052908120600160e11b4260a01b88178117909155841690036112d5576001840160008181526004602052604081205490036112d35760005481146112d35760008181526004602052604090208490555b505b83856001600160a01b0316876001600160a01b03167fddf252ad1be2c89b69c2b068fc378daa952ba7f163c4a11628f55a4df523b3ef60405160405180910390a45b505050505050565b610e49828260405180602001604052806000815250611578565b600880546001600160a01b038381166001600160a01b0319831681179093556040519116919082907f8be0079c531659141344cd1fd0a4f28419497f9722a3daafe3b4186f6b6457e090600090a35050565b604051630a85bd0160e11b81526000906001600160a01b0385169063150b7a02906113c0903390899088908890600401611ca6565b6020604051808303816000875af19250505080156113fb575060408051601f3d908101601f191682019092526113f891810190611ce3565b60015b611459573d808015611429576040519150601f19603f3d011682016040523d82523d6000602084013e61142e565b606091505b508051600003611451576040516368d2bf6b60e11b815260040160405180910390fd5b805181602001fd5b6001600160e01b031916630a85bd0160e11b1490505b949350505050565b60608160000361149e5750506040805180820190915260018152600360fc1b602082015290565b8160005b81156114c857806114b281611d00565b91506114c19050600a83611ae2565b91506114a2565b60008167ffffffffffffffff8111156114e3576114e361185d565b6040519080825280601f01601f19166020018201604052801561150d576020820181803683370190505b5090505b841561146f57611522600183611d19565b915061152f600a86611a99565b61153a906030611af6565b60f81b81838151811061154f5761154f611d2c565b60200101906001600160f81b031916908160001a905350611571600a86611ae2565b9450611511565b6000548360000361159b57604051622e076360e81b815260040160405180910390fd5b826000036115bc5760405163b562e8dd60e01b815260040160405180910390fd5b6001600160a01b03841660008181526005602090815260408083208054680100000000000000018902019055848352600490915290204260a01b86176001861460e11b1790558190818501903b15611691575b60405182906001600160a01b038816906000907fddf252ad1be2c89b69c2b068fc378daa952ba7f163c4a11628f55a4df523b3ef908290a461165a600087848060010195508761138b565b611677576040516368d2bf6b60e11b815260040160405180910390fd5b80821061160f57826000541461168c57600080fd5b6116d6565b5b6040516001830192906001600160a01b038816906000907fddf252ad1be2c89b69c2b068fc378daa952ba7f163c4a11628f55a4df523b3ef908290a4808210611692575b506000908155610f269085838684565b6001600160e01b03198116811461107a57600080fd5b60006020828403121561170e57600080fd5b81356108ae816116e6565b60005b8381101561173457818101518382015260200161171c565b50506000910152565b60008151808452611755816020860160208601611719565b601f01601f19169290920160200192915050565b6020815260006108ae602083018461173d565b60006020828403121561178e57600080fd5b5035919050565b80356001600160a01b03811681146117ac57600080fd5b919050565b600080604083850312156117c457600080fd5b6117cd83611795565b946020939093013593505050565b803580151581146117ac57600080fd5b6000602082840312156117fd57600080fd5b6108ae826117db565b60008060006060848603121561181b57600080fd5b61182484611795565b925061183260208501611795565b9150604084013590509250925092565b60006020828403121561185457600080fd5b6108ae82611795565b634e487b7160e01b600052604160045260246000fd5b600067ffffffffffffffff8084111561188e5761188e61185d565b604051601f8501601f19908116603f011681019082821181831017156118b6576118b661185d565b816040528093508581528686860111156118cf57600080fd5b858560208301376000602087830101525050509392505050565b6000602082840312156118fb57600080fd5b813567ffffffffffffffff81111561191257600080fd5b8201601f8101841361192357600080fd5b61146f84823560208401611873565b6000806040838503121561194557600080fd5b61194e83611795565b915061195c602084016117db565b90509250929050565b6000806000806080858703121561197b57600080fd5b61198485611795565b935061199260208601611795565b925060408501359150606085013567ffffffffffffffff8111156119b557600080fd5b8501601f810187136119c657600080fd5b6119d587823560208401611873565b91505092959194509250565b634e487b7160e01b600052602160045260246000fd5b6020810160038310611a1957634e487b7160e01b600052602160045260246000fd5b91905290565b60008060408385031215611a3257600080fd5b611a3b83611795565b915061195c60208401611795565b600181811c90821680611a5d57607f821691505b602082108103611a7d57634e487b7160e01b600052602260045260246000fd5b50919050565b634e487b7160e01b600052601260045260246000fd5b600082611aa857611aa8611a83565b500690565b634e487b7160e01b600052601160045260246000fd5b6000816000190483118215151615611add57611add611aad565b500290565b600082611af157611af1611a83565b500490565b8082018082111561069557610695611aad565b601f8211156108e857600081815260208120601f850160051c81016020861015611b305750805b601f850160051c820191505b8181101561131757828155600101611b3c565b815167ffffffffffffffff811115611b6957611b6961185d565b611b7d81611b778454611a49565b84611b09565b602080601f831160018114611bb25760008415611b9a5750858301515b600019600386901b1c1916600185901b178555611317565b600085815260208120601f198616915b82811015611be157888601518255948401946001909101908401611bc2565b5085821015611bff5787850151600019600388901b60f8161c191681555b5050505050600190811b01905550565b6000808454611c1d81611a49565b60018281168015611c355760018114611c4a57611c79565b60ff1984168752821515830287019450611c79565b8860005260208060002060005b85811015611c705781548a820152908401908201611c57565b50505082870194505b505050508351611c8d818360208801611719565b64173539b7b760d91b9101908152600501949350505050565b6001600160a01b0385811682528416602082015260408101839052608060608201819052600090611cd99083018461173d565b9695505050505050565b600060208284031215611cf557600080fd5b81516108ae816116e6565b600060018201611d1257611d12611aad565b5060010190565b8181038181111561069557610695611aad565b634e487b7160e01b600052603260045260246000fdfea264697066735822122034fc62af2750d21cba76a97bb6ed80552e64f37a42316391916d7b24773b74f964736f6c63430008100033",
  "linkReferences": {},
  "deployedLinkReferences": {}
}